{
  "_format": "hh-sol-artifact-1",
  "contractName": "MultiOwnable",
  "sourceName": "contracts/MultiOwnable.sol",
  "abi": [
    {
      "inputs": [],
      "stateMutability": "nonpayable",
      "type": "constructor"
    },
    {
      "anonymous": false,
      "inputs": [
        {
          "indexed": true,
          "internalType": "address",
          "name": "_from",
          "type": "address"
        },
        {
          "indexed": true,
          "internalType": "address",
          "name": "_to",
          "type": "address"
        },
        {
          "indexed": false,
          "internalType": "uint256",
          "name": "_value",
          "type": "uint256"
        }
      ],
      "name": "Transfer",
      "type": "event"
    },
    {
      "inputs": [
        {
          "internalType": "address",
          "name": "account",
          "type": "address"
        }
      ],
      "name": "balanceOf",
      "outputs": [
        {
          "internalType": "uint256",
          "name": "",
          "type": "uint256"
        }
      ],
      "stateMutability": "view",
      "type": "function"
    },
    {
      "inputs": [],
      "name": "clearVote",
      "outputs": [],
      "stateMutability": "nonpayable",
      "type": "function"
    },
    {
      "inputs": [],
      "name": "confirmedCandidate",
      "outputs": [
        {
          "internalType": "address",
          "name": "",
          "type": "address"
        }
      ],
      "stateMutability": "view",
      "type": "function"
    },
    {
      "inputs": [],
      "name": "decimals",
      "outputs": [
        {
          "internalType": "uint256",
          "name": "",
          "type": "uint256"
        }
      ],
      "stateMutability": "view",
      "type": "function"
    },
    {
      "inputs": [
        {
          "internalType": "address",
          "name": "",
          "type": "address"
        }
      ],
      "name": "isVoted",
      "outputs": [
        {
          "internalType": "bool",
          "name": "",
          "type": "bool"
        }
      ],
      "stateMutability": "view",
      "type": "function"
    },
    {
      "inputs": [],
      "name": "name",
      "outputs": [
        {
          "internalType": "string",
          "name": "",
          "type": "string"
        }
      ],
      "stateMutability": "view",
      "type": "function"
    },
    {
      "inputs": [
        {
          "internalType": "address",
          "name": "",
          "type": "address"
        }
      ],
      "name": "owner",
      "outputs": [
        {
          "internalType": "bool",
          "name": "",
          "type": "bool"
        }
      ],
      "stateMutability": "view",
      "type": "function"
    },
    {
      "inputs": [],
      "name": "ownersNumber",
      "outputs": [
        {
          "internalType": "uint256",
          "name": "",
          "type": "uint256"
        }
      ],
      "stateMutability": "view",
      "type": "function"
    },
    {
      "inputs": [
        {
          "internalType": "address",
          "name": "_newCandidate",
          "type": "address"
        }
      ],
      "name": "promoteCandidate",
      "outputs": [],
      "stateMutability": "nonpayable",
      "type": "function"
    },
    {
      "inputs": [
        {
          "internalType": "address",
          "name": "",
          "type": "address"
        }
      ],
      "name": "promotedCandidate",
      "outputs": [
        {
          "internalType": "bool",
          "name": "",
          "type": "bool"
        }
      ],
      "stateMutability": "view",
      "type": "function"
    },
    {
      "inputs": [],
      "name": "symbol",
      "outputs": [
        {
          "internalType": "string",
          "name": "",
          "type": "string"
        }
      ],
      "stateMutability": "view",
      "type": "function"
    },
    {
      "inputs": [],
      "name": "totalSupply",
      "outputs": [
        {
          "internalType": "uint256",
          "name": "",
          "type": "uint256"
        }
      ],
      "stateMutability": "view",
      "type": "function"
    },
    {
      "inputs": [
        {
          "internalType": "address",
          "name": "to",
          "type": "address"
        },
        {
          "internalType": "uint256",
          "name": "amount",
          "type": "uint256"
        }
      ],
      "name": "transfer",
      "outputs": [],
      "stateMutability": "nonpayable",
      "type": "function"
    },
    {
      "inputs": [
        {
          "internalType": "bool",
          "name": "_option",
          "type": "bool"
        }
      ],
      "name": "vote",
      "outputs": [],
      "stateMutability": "nonpayable",
      "type": "function"
    }
  ],
  "bytecode": "0x60806040526040518060400160405280601281526020017f4d756c74696f776e61626c6520546f6b656e0000000000000000000000000000815250600090805190602001906200005192919062000181565b506040518060400160405280600381526020017f4d4f540000000000000000000000000000000000000000000000000000000000815250600190805190602001906200009f92919062000181565b5068056bc75e2d63100000600355348015620000ba57600080fd5b506001600460003373ffffffffffffffffffffffffffffffffffffffff1673ffffffffffffffffffffffffffffffffffffffff16815260200190815260200160002060006101000a81548160ff021916908315150217905550600354600b60003373ffffffffffffffffffffffffffffffffffffffff1673ffffffffffffffffffffffffffffffffffffffff16815260200190815260200160002081905550600860008154809291906200016e906200026a565b919050555060126002819055506200031d565b8280546200018f90620002e7565b90600052602060002090601f016020900481019282620001b35760008555620001ff565b82601f10620001ce57805160ff1916838001178555620001ff565b82800160010185558215620001ff579182015b82811115620001fe578251825591602001919060010190620001e1565b5b5090506200020e919062000212565b5090565b5b808211156200022d57600081600090555060010162000213565b5090565b7f4e487b7100000000000000000000000000000000000000000000000000000000600052601160045260246000fd5b6000819050919050565b6000620002778262000260565b91507fffffffffffffffffffffffffffffffffffffffffffffffffffffffffffffffff821415620002ad57620002ac62000231565b5b600182019050919050565b7f4e487b7100000000000000000000000000000000000000000000000000000000600052602260045260246000fd5b600060028204905060018216806200030057607f821691505b60208210811415620003175762000316620002b8565b5b50919050565b611978806200032d6000396000f3fe608060405234801561001057600080fd5b50600436106100ea5760003560e01c806370a082311161008c578063a9059cbb11610066578063a9059cbb1461024f578063b29c46d01461026b578063cbff75cb14610287578063e6fc636a146102b7576100ea565b806370a08231146101d157806395d89b411461020157806396bb5df61461021f576100ea565b80631c9345f1116100c85780631c9345f114610149578063313ce567146101675780634b9f5c9814610185578063666e1b39146101a1576100ea565b806306fdde03146100ef578063147af4ec1461010d57806318160ddd1461012b575b600080fd5b6100f76102c1565b60405161010491906111a8565b60405180910390f35b61011561034f565b60405161012291906111e3565b60405180910390f35b610133610355565b60405161014091906111e3565b60405180910390f35b61015161035b565b60405161015e919061123f565b60405180910390f35b61016f610381565b60405161017c91906111e3565b60405180910390f35b61019f600480360381019061019a9190611297565b610387565b005b6101bb60048036038101906101b691906112f0565b61084e565b6040516101c8919061132c565b60405180910390f35b6101eb60048036038101906101e691906112f0565b61086e565b6040516101f891906111e3565b60405180910390f35b6102096108b7565b60405161021691906111a8565b60405180910390f35b610239600480360381019061023491906112f0565b610945565b604051610246919061132c565b60405180910390f35b61026960048036038101906102649190611373565b610965565b005b610285600480360381019061028091906112f0565b610afc565b005b6102a1600480360381019061029c91906112f0565b610ef0565b6040516102ae919061132c565b60405180910390f35b6102bf610f10565b005b600080546102ce906113e2565b80601f01602080910402602001604051908101604052809291908181526020018280546102fa906113e2565b80156103475780601f1061031c57610100808354040283529160200191610347565b820191906000526020600020905b81548152906001019060200180831161032a57829003601f168201915b505050505081565b60085481565b60035481565b600760009054906101000a900473ffffffffffffffffffffffffffffffffffffffff1681565b60025481565b600460003373ffffffffffffffffffffffffffffffffffffffff1673ffffffffffffffffffffffffffffffffffffffff16815260200190815260200160002060009054906101000a900460ff16610413576040517f08c379a000000000000000000000000000000000000000000000000000000000815260040161040a90611460565b60405180910390fd5b600460008073ffffffffffffffffffffffffffffffffffffffff1673ffffffffffffffffffffffffffffffffffffffff16815260200190815260200160002060009054906101000a900460ff16156104a0576040517f08c379a0000000000000000000000000000000000000000000000000000000008152600401610497906114cc565b60405180910390fd5b600660003373ffffffffffffffffffffffffffffffffffffffff1673ffffffffffffffffffffffffffffffffffffffff16815260200190815260200160002060009054906101000a900460ff161561052d576040517f08c379a000000000000000000000000000000000000000000000000000000000815260040161052490611538565b60405180910390fd5b600073ffffffffffffffffffffffffffffffffffffffff16600760009054906101000a900473ffffffffffffffffffffffffffffffffffffffff1673ffffffffffffffffffffffffffffffffffffffff1614156105bf576040517f08c379a00000000000000000000000000000000000000000000000000000000081526004016105b6906115a4565b60405180910390fd5b6001600660003373ffffffffffffffffffffffffffffffffffffffff1673ffffffffffffffffffffffffffffffffffffffff16815260200190815260200160002060006101000a81548160ff0219169083151502179055506001151581151514156106415760096000815480929190610637906115f3565b919050555061065a565b600a6000815480929190610654906115f3565b91905055505b6002600854610669919061166b565b600954118061068857506002600854610682919061166b565b600a5410155b1561084b57600260085461069c919061166b565b60095411156107a057600160046000600760009054906101000a900473ffffffffffffffffffffffffffffffffffffffff1673ffffffffffffffffffffffffffffffffffffffff1673ffffffffffffffffffffffffffffffffffffffff16815260200190815260200160002060006101000a81548160ff02191690831515021790555060086000815480929190610732906115f3565b91905055506000600660003373ffffffffffffffffffffffffffffffffffffffff1673ffffffffffffffffffffffffffffffffffffffff16815260200190815260200160002060006101000a81548160ff02191690831515021790555060006009819055506000600a819055505b6000600760006101000a81548173ffffffffffffffffffffffffffffffffffffffff021916908373ffffffffffffffffffffffffffffffffffffffff1602179055506000600660003373ffffffffffffffffffffffffffffffffffffffff1673ffffffffffffffffffffffffffffffffffffffff16815260200190815260200160002060006101000a81548160ff02191690831515021790555060006009819055506000600a819055505b50565b60046020528060005260406000206000915054906101000a900460ff1681565b6000600b60008373ffffffffffffffffffffffffffffffffffffffff1673ffffffffffffffffffffffffffffffffffffffff168152602001908152602001600020549050919050565b600180546108c4906113e2565b80601f01602080910402602001604051908101604052809291908181526020018280546108f0906113e2565b801561093d5780601f106109125761010080835404028352916020019161093d565b820191906000526020600020905b81548152906001019060200180831161092057829003601f168201915b505050505081565b60056020528060005260406000206000915054906101000a900460ff1681565b80600b60003373ffffffffffffffffffffffffffffffffffffffff1673ffffffffffffffffffffffffffffffffffffffff1681526020019081526020016000205410156109e7576040517f08c379a00000000000000000000000000000000000000000000000000000000081526004016109de906116e8565b60405180910390fd5b80600b60003373ffffffffffffffffffffffffffffffffffffffff1673ffffffffffffffffffffffffffffffffffffffff1681526020019081526020016000206000828254610a369190611708565b9250508190555080600b60008473ffffffffffffffffffffffffffffffffffffffff1673ffffffffffffffffffffffffffffffffffffffff1681526020019081526020016000206000828254610a8c919061173c565b925050819055508173ffffffffffffffffffffffffffffffffffffffff163373ffffffffffffffffffffffffffffffffffffffff167fddf252ad1be2c89b69c2b068fc378daa952ba7f163c4a11628f55a4df523b3ef83604051610af091906111e3565b60405180910390a35050565b600460003373ffffffffffffffffffffffffffffffffffffffff1673ffffffffffffffffffffffffffffffffffffffff16815260200190815260200160002060009054906101000a900460ff16610b88576040517f08c379a0000000000000000000000000000000000000000000000000000000008152600401610b7f90611460565b60405180910390fd5b600460008073ffffffffffffffffffffffffffffffffffffffff1673ffffffffffffffffffffffffffffffffffffffff16815260200190815260200160002060009054906101000a900460ff1615610c15576040517f08c379a0000000000000000000000000000000000000000000000000000000008152600401610c0c906114cc565b60405180910390fd5b600073ffffffffffffffffffffffffffffffffffffffff168173ffffffffffffffffffffffffffffffffffffffff161415610c85576040517f08c379a0000000000000000000000000000000000000000000000000000000008152600401610c7c906117de565b60405180910390fd5b600560008273ffffffffffffffffffffffffffffffffffffffff1673ffffffffffffffffffffffffffffffffffffffff16815260200190815260200160002060009054906101000a900460ff1615610d12576040517f08c379a0000000000000000000000000000000000000000000000000000000008152600401610d099061184a565b60405180910390fd5b600460008273ffffffffffffffffffffffffffffffffffffffff1673ffffffffffffffffffffffffffffffffffffffff16815260200190815260200160002060009054906101000a900460ff1615610d9f576040517f08c379a0000000000000000000000000000000000000000000000000000000008152600401610d96906118b6565b60405180910390fd5b6001600560008373ffffffffffffffffffffffffffffffffffffffff1673ffffffffffffffffffffffffffffffffffffffff16815260200190815260200160002060006101000a81548160ff0219169083151502179055506001600560008373ffffffffffffffffffffffffffffffffffffffff1673ffffffffffffffffffffffffffffffffffffffff16815260200190815260200160002060006101000a81548160ff021916908315150217905515610eed5780600760006101000a81548173ffffffffffffffffffffffffffffffffffffffff021916908373ffffffffffffffffffffffffffffffffffffffff1602179055506000600560008373ffffffffffffffffffffffffffffffffffffffff1673ffffffffffffffffffffffffffffffffffffffff16815260200190815260200160002060006101000a81548160ff0219169083151502179055505b50565b60066020528060005260406000206000915054906101000a900460ff1681565b600460003373ffffffffffffffffffffffffffffffffffffffff1673ffffffffffffffffffffffffffffffffffffffff16815260200190815260200160002060009054906101000a900460ff16610f9c576040517f08c379a0000000000000000000000000000000000000000000000000000000008152600401610f9390611460565b60405180910390fd5b600460008073ffffffffffffffffffffffffffffffffffffffff1673ffffffffffffffffffffffffffffffffffffffff16815260200190815260200160002060009054906101000a900460ff1615611029576040517f08c379a0000000000000000000000000000000000000000000000000000000008152600401611020906114cc565b60405180910390fd5b600660003373ffffffffffffffffffffffffffffffffffffffff1673ffffffffffffffffffffffffffffffffffffffff16815260200190815260200160002060009054906101000a900460ff166110b5576040517f08c379a00000000000000000000000000000000000000000000000000000000081526004016110ac90611922565b60405180910390fd5b6000600660003373ffffffffffffffffffffffffffffffffffffffff1673ffffffffffffffffffffffffffffffffffffffff16815260200190815260200160002060006101000a81548160ff021916908315150217905550565b600081519050919050565b600082825260208201905092915050565b60005b8381101561114957808201518184015260208101905061112e565b83811115611158576000848401525b50505050565b6000601f19601f8301169050919050565b600061117a8261110f565b611184818561111a565b935061119481856020860161112b565b61119d8161115e565b840191505092915050565b600060208201905081810360008301526111c2818461116f565b905092915050565b6000819050919050565b6111dd816111ca565b82525050565b60006020820190506111f860008301846111d4565b92915050565b600073ffffffffffffffffffffffffffffffffffffffff82169050919050565b6000611229826111fe565b9050919050565b6112398161121e565b82525050565b60006020820190506112546000830184611230565b92915050565b600080fd5b60008115159050919050565b6112748161125f565b811461127f57600080fd5b50565b6000813590506112918161126b565b92915050565b6000602082840312156112ad576112ac61125a565b5b60006112bb84828501611282565b91505092915050565b6112cd8161121e565b81146112d857600080fd5b50565b6000813590506112ea816112c4565b92915050565b6000602082840312156113065761130561125a565b5b6000611314848285016112db565b91505092915050565b6113268161125f565b82525050565b6000602082019050611341600083018461131d565b92915050565b611350816111ca565b811461135b57600080fd5b50565b60008135905061136d81611347565b92915050565b6000806040838503121561138a5761138961125a565b5b6000611398858286016112db565b92505060206113a98582860161135e565b9150509250929050565b7f4e487b7100000000000000000000000000000000000000000000000000000000600052602260045260246000fd5b600060028204905060018216806113fa57607f821691505b6020821081141561140e5761140d6113b3565b5b50919050565b7f4e6f7420616e206f776e65720000000000000000000000000000000000000000600082015250565b600061144a600c8361111a565b915061145582611414565b602082019050919050565b600060208201905081810360008301526114798161143d565b9050919050565b7f77726f6e67206164647265737320636f6e7374727563746f7200000000000000600082015250565b60006114b660198361111a565b91506114c182611480565b602082019050919050565b600060208201905081810360008301526114e5816114a9565b9050919050565b7f416c726561647920766f74656400000000000000000000000000000000000000600082015250565b6000611522600d8361111a565b915061152d826114ec565b602082019050919050565b6000602082019050818103600083015261155181611515565b9050919050565b7f77726f6e67206164647265737300000000000000000000000000000000000000600082015250565b600061158e600d8361111a565b915061159982611558565b602082019050919050565b600060208201905081810360008301526115bd81611581565b9050919050565b7f4e487b7100000000000000000000000000000000000000000000000000000000600052601160045260246000fd5b60006115fe826111ca565b91507fffffffffffffffffffffffffffffffffffffffffffffffffffffffffffffffff821415611631576116306115c4565b5b600182019050919050565b7f4e487b7100000000000000000000000000000000000000000000000000000000600052601260045260246000fd5b6000611676826111ca565b9150611681836111ca565b9250826116915761169061163c565b5b828204905092915050565b7f4e6f7420656e6f75676820746f6b656e73000000000000000000000000000000600082015250565b60006116d260118361111a565b91506116dd8261169c565b602082019050919050565b60006020820190508181036000830152611701816116c5565b9050919050565b6000611713826111ca565b915061171e836111ca565b925082821015611731576117306115c4565b5b828203905092915050565b6000611747826111ca565b9150611752836111ca565b9250827fffffffffffffffffffffffffffffffffffffffffffffffffffffffffffffffff03821115611787576117866115c4565b5b828201905092915050565b7f77726f6e6720616464726573732070726f6d6f746543616e6469646174650000600082015250565b60006117c8601e8361111a565b91506117d382611792565b602082019050919050565b600060208201905081810360008301526117f7816117bb565b9050919050565b7f416c72656164792063616e646964617465000000000000000000000000000000600082015250565b600061183460118361111a565b915061183f826117fe565b602082019050919050565b6000602082019050818103600083015261186381611827565b9050919050565b7f416c7265616479206f776e657200000000000000000000000000000000000000600082015250565b60006118a0600d8361111a565b91506118ab8261186a565b602082019050919050565b600060208201905081810360008301526118cf81611893565b9050919050565b7f4e6f7420766f7465642079657400000000000000000000000000000000000000600082015250565b600061190c600d8361111a565b9150611917826118d6565b602082019050919050565b6000602082019050818103600083015261193b816118ff565b905091905056fea26469706673582212201176aa9e7e5812766d3e0dc33f1b42dd3f865a29964b11774ff17c66eca5400564736f6c63430008090033",
  "linkReferences": {},
  "deployedLinkReferences": {}
}